:100000000C9472000C9493000C9493000C94930045
:100010000C9493000C94EA000C94C5000C9493008B
:100020000C9493000C9493000C9493000C94930004
:100030000C9493000C9493000C9493000C949300F4
:100040000C9493000C9493000C9493000C949300E4
:100050000C9493000C9493000C9493000C949300D4
:100060000C9493000C9450020C9493000C94930005
:100070000C9493000C9493000C9493000C949300B4
:100080000C9493000C9493000C9493000C949300A4
:100090000C9493000C9493000C9493000C94930094
:1000A0000C9493000C9493000C9493000C94930084
:1000B0000C9493000C9493000C9493000C94930074
:1000C0000C9493000C9493000C9493000C94930064
:1000D0000C9493000C9493000C9493000C94930054
:1000E0000C94930011241FBECFEFD1E2DEBFCDBF31
:1000F00000E00CBF12E0A0E0B2E0EEEEF8E000E0BD
:100100000BBF02C007900D92A030B107D9F712E0E3
:10011000A0E0B2E001C01D92AD30B107E1F70E944E
:10012000A3020C9475040C94000081B18F6081B916
:1001300082B1807F82B9EAE0F1E0808188618083CA
:10014000EBE0F1E080818861808308956C98749A77
:1001500008956D98759A08950E9495000E94A600D2
:100160000E94A9000895F894EAE6F0E08081826098
:100170008083EC9A78940895F894EAE6F0E0808120
:1001800088608083ED9A789408951F920F920FB63D
:100190000F9211248F939F93AF93BF93809100028E
:1001A00090910102A0910202B09103020196A11D5B
:1001B000B11D8093000290930102A0930202B093BC
:1001C0000302BF91AF919F918F910F900FBE0F903F
:1001D0001F9018951F920F920FB60F9211248F93B4
:1001E0009F93AF93BF938091040290910502A091D9
:1001F0000602B09107020196A11DB11D8093040271
:1002000090930502A0930602B0930702BF91AF91AD
:100210009F918F910F900FBE0F901F90189592B1E4
:10022000907F8F70982B92B9089586E00E940F01FD
:10023000089589E00E940F01089585E00E940F0152
:1002400008958AE00E940F01089584E00E940F0142
:10025000089582E00E940F01089581E00E940F013D
:10026000089588E00E940F01089580E00E940F0128
:1002700008950F931F93CF93BC0180E090E00E94FC
:10028000A60328E431EE42E850E40E9412030E94E3
:100290007A03DC01CB01A0E0B0E0109200021092E2
:1002A00001021092020210920302109204021092B4
:1002B00005021092060210920702F1E0C0E04091A0
:1002C00000025091010260910202709103020091BC
:1002D0000402109105022091060230910702EF2FCF
:1002E000481759076A077B0708F4EC2FEE2349F4F7
:1002F0004F2F081719072A073B0708F44C2F4423F0
:10030000F1F20E943501CF911F910F910895BC0128
:1003100080E090E00E94A60325EE30ED4AEA50E42A
:100320000E9412030E947A03462F572F682F792FBD
:100330001092000210920102109202021092030227
:100340001092040210920502109206021092070207
:100350008091000290910102A0910202B0910302EB
:10036000481759076A077B0768F08091040290914B
:100370000502A0910602B0910702481759076A07C3
:100380007B0730F70E9435010895CF93DF93EC018E
:100390000E941501CE010E948701DF91CF9108953F
:1003A000CF93DF93EC010E941901CE010E948701D7
:1003B000DF91CF910895CF93DF93EC010E941D014F
:1003C000CE010E943901DF91CF910895CF93DF9341
:1003D000EC010E942101CE010E943901DF91CF91F1
:1003E0000895CF93DF93EC010E942501CE01880F81
:1003F000991F0E943901DF91CF910895CF93DF9328
:10040000EC010E942901CE01880F991F0E94390139
:10041000DF91CF910895CF93DF93EC010E942D01DE
:10042000CE01880F991F0E943901DF91CF91089565
:10043000CF93DF93EC010E943101CE01880F991F09
:100440000E943901DF91CF910895E1E2F1E010823D
:100450008FEF8093250191E0909324011092290160
:100460008093280110922B0180932A0110922D0174
:1004700080932C0189EA809320018BE0808308958A
:10048000E1ECF0E010821092C00086E08093C200A0
:100490008FE58093C4001092C50088E98083089599
:1004A0001F920F920FB60F920BB60F9211248F93DB
:1004B000EF93FF93E6ECF0E0808180930A02808363
:1004C000883311F486E082B980910A02823311F4F4
:1004D00089E082B980910A02843311F485E082B9FF
:1004E00080910A02863311F48AE082B980910A026F
:1004F0008C3611F484E082B980910A02823711F4BB
:1005000082E082B980910A02853309F412B8FF9122
:10051000EF918F910F900BBE0F900FBE0F901F9019
:1005200018958093280160932A010895F8940E94F9
:10053000AC000E94B3000E94BC000E9425020E94F1
:100540004002789408950E94960200E010E0C0EC0A
:10055000D0E00F2EFEE18F2EF0E09F2EF0E0AF2EC8
:10056000F0E0BF2EF02D0F2EF6EC6F2E7724F02D3D
:100570008FEF9FEFACE281509040A040E1F700C0C8
:1005800000000F5F1F4F83EC63EC0E9491020E94FA
:100590001501888185FFFDCF6091040270910502ED
:1005A0008091060290910702A50194010E945304D4
:1005B000CA01B9012CE330E040E050E00E9434046D
:1005C0006801EE24D7FCE094FE2CA70196010E945E
:1005D000530420930C02D3012C93888185FFFDCF17
:1005E00060910002709101028091020290910302D9
:1005F000A50194010E945304CA01B9012CE330E023
:1006000040E050E00E943404A70196010E94530488
:1006100020930B02F3012083888185FFFDCFD30156
:100620001C92A6CF0CD0E6C0DED040F0D5D030F082
:1006300021F45F3F19F0C7C0511110C1CAC0EBD0FF
:1006400098F39923C9F35523B1F3951B550BBB2799
:10065000AA2762177307840738F09F5F5F4F220F46
:10066000331F441FAA1FA9F333D00E2E3AF0E0E83F
:1006700030D091505040E695001CCAF729D0FE2F8B
:1006800027D0660F771F881FBB1F2617370748071D
:10069000AB07B0E809F0BB0B802DBF01FF279358D3
:1006A0005F4F2AF09E3F510568F08DC0D7C05F3F75
:1006B000ECF3983EDCF3869577956795B795F795BB
:1006C0009F5FC9F7880F911D9695879597F90895B3
:1006D000E1E0660F771F881FBB1F6217730784074F
:1006E000BA0720F0621B730B840BBA0BEE1F88F75E
:1006F000E095089598D088F09F5790F0B92F9927EA
:10070000B751A0F0D1F0660F771F881F991F1AF01C
:10071000BA95C9F712C0B13081F09FD0B1E0089509
:100720009CC0672F782F8827B85F39F0B93FCCF38A
:10073000869577956795B395D9F73EF49095809512
:10074000709561957F4F8F4F9F4F0895E89409C032
:1007500097FB3EF490958095709561957F4F8F4FF4
:100760009F4F9923A9F0F92F96E9BB279395F6950A
:10077000879577956795B795F111F8CFFAF4BB0F88
:1007800011F460FF1BC06F5F7F4F8F4F9F4F16C0EC
:10079000882311F096E911C0772321F09EE8872F76
:1007A000762F05C0662371F096E8862F70E060E032
:1007B0002AF09A95660F771F881FDAF7880F9695AB
:1007C000879597F9089597F99F6780E870E060E052
:1007D00008959FEF80EC089500240A9416161706DA
:1007E00018060906089500240A9412161306140622
:1007F00005060895092E0394000C11F4882352F085
:10080000BB0F40F4BF2B11F460FF04C06F5F7F4F3C
:100810008F4F9F4F089557FD9058440F551F59F023
:100820005F3F71F04795880F97FB991F61F09F3FDD
:1008300079F087950895121613061406551FF2CF06
:100840004695F1DF08C0161617061806991FF1CF56
:1008500086957105610508940895E894BB2766277D
:100860007727CB0197F90895629FD001739FF0011C
:10087000829FE00DF11D649FE00DF11D929FF00D30
:10088000839FF00D749FF00D659FF00D9927729F67
:10089000B00DE11DF91F639FB00DE11DF91FBD01F2
:1008A000CF0111240895A1E21A2EAA1BBB1BFD0142
:1008B0000DC0AA1FBB1FEE1FFF1FA217B307E4073F
:1008C000F50720F0A21BB30BE40BF50B661F771F97
:1008D000881F991F1A9469F7609570958095909577
:0E08E0009B01AC01BD01CF010895F894FFCF3C
:00000001FF
