:100000000C9472000C9493000C9493000C94930045
:100010000C9493000C94EF010C94C5010C94930084
:100020000C9493000C9493000C9493000C94930004
:100030000C9493000C9493000C9493000C949300F4
:100040000C9493000C9493000C9493000C949300E4
:100050000C9493000C9493000C9493000C949300D4
:100060000C9493000C946A030C9493000C949300EA
:100070000C9493000C9493000C9493000C949300B4
:100080000C9493000C9493000C9493000C949300A4
:100090000C9493000C9493000C9493000C94930094
:1000A0000C9493000C9493000C9493000C94930084
:1000B0000C9493000C9493000C9493000C94930074
:1000C0000C9493000C9493000C9493000C94930064
:1000D0000C9493000C9493000C9493000C94930054
:1000E0000C94930011241FBECFEFD1E2DEBFCDBF31
:1000F00000E00CBF12E0A0E0B2E0EEE4FBE000E0C4
:100100000BBF02C007900D92A030B107D9F712E0E3
:10011000A0E0B2E001C01D92A531B107E1F70E9455
:10012000C9030C94A5050C940000809328016093EA
:100130002A010895CF93DF93CDB7DEB762970FB64C
:10014000F894DEBF0FBECDBF1D821E821F821886AF
:100150001D861E861F86188A282F30E03A8B298B31
:10016000C901BC010E9495000E941F0233248FEF39
:100170009FE3A2E081509040A040E1F700C0000062
:100180008D819E81AF81B88589839A83AB83BC833F
:100190008D859E85AF85B88989879A87AB87BC870F
:1001A000F8948091080290910902A0910A02B091FE
:1001B0000B029C01AD01012E1AE0220F331F441FD8
:1001C000551F1A95D1F7102D60E070E081EE90E098
:1001D0000E948305CA01B9010E94CD04C62EF72EE4
:1001E000E82ED92E8091000290910102A091020286
:1001F000B09103029C01AD01012E1AE0220F331FC2
:10020000441F551F1A95D1F7102D60E070E081EE64
:1002100090E00E948305CA01B9010E94CD04762EA8
:10022000672E582E492E7894862F962DA52DB42D05
:10023000BC01CD010C2D1F2D2E2D3D2DA9019801A6
:100240000E94350488230CF43394872D962DA52D18
:10025000B42DBC01CD010C2D1F2D2E2D3D2DA9013E
:1002600098010E947F0518160CF43A9469897A89DE
:10027000630D711D89899A890E9495008C2D9F2D8F
:10028000AE2DBD2DBC01CD010E94A1044B015C012E
:100290000E94CD049B01AC018C2D9F2DAE2DBD2D58
:1002A000BC01CD010E94D00320E030E040E05FE3DC
:1002B0000E947F0518162CF40894811C911CA11C27
:1002C000B11C8D829E82AF82B886872D962DA52D7A
:1002D000B42DBC01CD010E94A1046B017C010E94E0
:1002E000CD049B01AC01872D962DA52DB42DBC010D
:1002F000CD010E94D00320E030E040E05FE30E94A7
:100300007F0518162CF40894C11CD11CE11CF11CAB
:10031000CD86DE86EF86F88A8981880E8092140267
:100320008985C80EC092130222CF81B18F6081B936
:1003300082B1807F82B9EAE0F1E0808188618083C8
:10034000EBE0F1E080818861808308956C98749A75
:1003500008956D98759A08950E9495010E94A601CE
:100360000E94A9010895F894EAE6F0E08081826095
:100370008083EC9A78940895F894EAE6F0E080811E
:1003800088608083ED9A789408951F920F920FB63B
:100390000F920BB60F9211248F939F93AF93BF933D
:1003A000EF93FF93E4E9F0E080819181A0E0B0E079
:1003B0008093000290930102A0930202B093030283
:1003C00011821082FF91EF91BF91AF919F918F9118
:1003D0000F900BBE0F900FBE0F901F9018951F929D
:1003E0000F920FB60F920BB60F9211248F939F931B
:1003F000AF93BF93EF93FF93E4E8F0E080819181A6
:10040000A0E0B0E08093080290930902A0930A0252
:10041000B0930B0211821082FF91EF91BF91AF91C7
:100420009F918F910F900BBE0F900FBE0F901F905A
:10043000189592B1907F8F70982B92B9089586E0AD
:100440000E941902089589E00E941902089585E02A
:100450000E94190208958AE00E941902089584E01A
:100460000E941902089582E00E941902089581E015
:100470000E941902089588E00E941902089580E000
:100480000E94190208950F931F93CF93BC0180E03F
:1004900090E00E94CD0428E431EE42E850E40E944E
:1004A00039040E94A104DC01CB01A0E0B0E010926D
:1004B0000402109205021092060210920702109296
:1004C0000C0210920D0210920E0210920F02F1E037
:1004D000C0E04091040250910502609106027091C3
:1004E000070200910C0210910D0220910E02309132
:1004F0000F02EF2F481759076A077B0708F4EC2F04
:10050000EE2349F44F2F081719072A073B0708F471
:100510004C2F4423F1F20E943F02CF911F910F9183
:100520000895BC0180E090E00E94CD0425EE30EDFE
:100530004AEA50E40E9439040E94A104462F572F32
:10054000682F792F10920402109205021092060271
:100550001092070210920C0210920D0210920E02DD
:1005600010920F028091040290910502A091060260
:10057000B0910702481759076A077B0768F0809116
:100580000C0290910D02A0910E02B0910F0248173B
:1005900059076A077B0730F70E943F020895CF93FF
:1005A000DF93EC010E941F02CE010E949102DF91B5
:1005B000CF910895CF93DF93EC010E942302CE01E7
:1005C0000E949102DF91CF910895CF93DF93EC01C8
:1005D0000E942702CE010E944302DF91CF9108952D
:1005E000CF93DF93EC010E942B02CE010E944302C5
:1005F000DF91CF910895CF93DF93EC010E942F02FA
:10060000CE01880F991F0E944302DF91CF91089578
:10061000CF93DF93EC010E943302CE01880F991F24
:100620000E944302DF91CF910895CF93DF93EC01B5
:100630000E943702CE01880F991F0E944302DF916A
:10064000CF910895CF93DF93EC010E943B02CE013E
:10065000880F991F0E944302DF91CF910895E1E234
:10066000F1E010828FEF8093250191E090932401B7
:10067000109229018093280110922B0180932A0166
:1006800010922D0180932C0189EA809320018BE048
:1006900080830895E1E8F0E010821092800085E008
:1006A00080830895E1E9F0E010821092900085E0E7
:1006B00080830895E1ECF0E010821092C00086E0A3
:1006C0008093C2008FE58093C4001092C50088E932
:1006D000808308951F920F920FB60F920BB60F9260
:1006E00011242F933F934F935F936F937F938F9337
:1006F0009F93AF93BF93EF93FF93E6ECF0E080817D
:10070000809312028083873719F484EB0E949A0049
:10071000883711F489E082B980911202813611F490
:1007200085E082B980911202843611F48AE082B9A0
:10073000809112028C3611F484E082B98091120209
:10074000823711F482E082B980911202833709F472
:1007500012B8FF91EF91BF91AF919F918F917F91CF
:100760006F915F914F913F912F910F900BBE0F9022
:100770000FBE0F901F901895F8940E94AC010E9434
:10078000B3010E94BC010E942F030E945A03789477
:1007900008950E94BC030E944A030E945203FFCFA7
:1007A0005058BB27AA270ED070C161D130F066D156
:1007B00020F031F49F3F11F41EF456C10EF4E09581
:1007C000E7FB4CC1E92F72D180F3BA1762077307B8
:1007D0008407950718F071F49EF58AC10EF4E09530
:1007E0000B2EBA2FA02D0B01B90190010C01CA01EB
:1007F000A0011124FF27591B99F0593F50F4503E96
:1008000068F11A16F040A22F232F342F4427585F87
:10081000F3CF469537952795A795F0405395C9F79F
:100820007EF41F16BA0B620B730B840BBAF0915057
:10083000A1F0FF0FBB1F661F771F881FC2F70EC0F6
:10084000BA0F621F731F841F48F4879577956795C9
:10085000B795F7959E3F08F0B3CF9395880F08F0B2
:100860009927EE0F979587950895D4D008F481E0E5
:1008700008950CD00AC102D140F0F9D030F021F433
:100880005F3F19F0EBC0511134C1EEC00FD198F3A6
:100890009923C9F35523B1F3951B550BBB27AA2701
:1008A00062177307840738F09F5F5F4F220F331F73
:1008B000441FAA1FA9F333D00E2E3AF0E0E830D03F
:1008C00091505040E695001CCAF729D0FE2F27D042
:1008D000660F771F881FBB1F261737074807AB0710
:1008E000B0E809F0BB0B802DBF01FF2793585F4F85
:1008F0002AF09E3F510568F0B1C0FBC05F3FECF3AA
:10090000983EDCF3869577956795B795F7959F5F49
:10091000C9F7880F911D9695879597F90895E1E09D
:10092000660F771F881FBB1F621773078407BA07FC
:1009300020F0621B730B840BBA0BEE1F88F7E09557
:100940000895BCD088F09F5790F0B92F9927B751E0
:10095000A0F0D1F0660F771F881F991F1AF0BA9583
:10096000C9F712C0B13081F0C3D0B1E00895C0C062
:10097000672F782F8827B85F39F0B93FCCF3869579
:1009800077956795B395D9F73EF4909580957095D6
:1009900061957F4F8F4F9F4F0895E89409C097FB53
:1009A0003EF490958095709561957F4F8F4F9F4F46
:1009B0009923A9F0F92F96E9BB279395F69587958A
:1009C00077956795B795F111F8CFFAF4BB0F11F44D
:1009D00060FF1BC06F5F7F4F8F4F9F4F16C08823F4
:1009E00011F096E911C0772321F09EE8872F762F2A
:1009F00005C0662371F096E8862F70E060E02AF06B
:100A00009A95660F771F881FDAF7880F9695879556
:100A100097F90895990F0008550FAA0BE0E8FEEF2B
:100A200016161706E807F907C0F012161306E407B2
:100A3000F50798F0621B730B840B950B39F40A26AB
:100A400061F0232B242B252B21F408950A2609F489
:100A5000A140A6958FEF811D811D089597F99F678D
:100A600080E870E060E008959FEF80EC0895002436
:100A70000A941616170618060906089500240A9403
:100A800012161306140605060895092E0394000C89
:100A900011F4882352F0BB0F40F4BF2B11F460FF18
:100AA00004C06F5F7F4F8F4F9F4F089557FD905841
:100AB000440F551F59F05F3F71F04795880F97FB22
:100AC000991F61F09F3F79F08795089512161306DC
:100AD0001406551FF2CF4695F1DF08C0161617060B
:100AE0001806991FF1CF8695710561050894089540
:100AF000E894BB2766277727CB0197F908958ADF0B
:100B000008F48FEF0895A1E21A2EAA1BBB1BFD016A
:100B10000DC0AA1FBB1FEE1FFF1FA217B307E407DC
:100B2000F50720F0A21BB30BE40BF50B661F771F34
:100B3000881F991F1A9469F7609570958095909514
:0E0B40009B01AC01BD01CF010895F894FFCFD9
:00000001FF
