:100000000C9472000C9493000C9493000C94930045
:100010000C9493000C9422020C94F8010C9493001D
:100020000C9493000C9493000C9493000C94930004
:100030000C9493000C9493000C9493000C949300F4
:100040000C9493000C9493000C9493000C949300E4
:100050000C9493000C9493000C9493000C949300D4
:100060000C9493000C94A2030C9493000C949300B2
:100070000C9493000C9493000C9493000C949300B4
:100080000C9493000C9493000C9493000C949300A4
:100090000C9493000C9493000C9493000C94930094
:1000A0000C9493000C9493000C9493000C94930084
:1000B0000C9493000C9493000C9493000C94930074
:1000C0000C9493000C9493000C9493000C94930064
:1000D0000C9493000C9493000C9493000C94930054
:1000E0000C94930011241FBECFEFD1E2DEBFCDBF31
:1000F00000E00CBF12E0A0E0B2E0E0ECFDE000E0C8
:100100000BBF02C007900D92A030B107D9F714E0E1
:10011000A0E0B2E001C01D92AD39B107E1F70E9445
:1001200046040C94DE060C94000080932801609332
:100130002A0108953F924F925F926F927F928F9221
:100140009F92AF92BF92CF92DF92EF92FF920F9366
:100150001F93CF93DF93CDB7DEB762970FB6F894B6
:10016000DEBF0FBECDBF1D821E821F8218861D8678
:100170001E861F86188A282F30E03A8B298BC901EA
:10018000BC010E9495000E9452023324DDC08FEF13
:100190009FE3A2E081509040A040E1F700C0000042
:1001A0008D819E81AF81B88589839A83AB83BC831F
:1001B0008D859E85AF85B88989879A87AB87BC87EF
:1001C000F8948091900490919104A0919204B09140
:1001D00093049C01AD01012E1AE0220F331F441F2E
:1001E000551F1A95D1F7102D60E070E081EE90E078
:1001F0000E94BC06CA01B9010E940606C62EF72E4F
:10020000E82ED92E8091880490918904A0918A04C7
:10021000B0918B049C01AD01012E1AE0220F331F17
:10022000441F551F1A95D1F7102D60E070E081EE44
:1002300090E00E94BC06CA01B9010E940606762E13
:10024000672E582E492E7894862F962DA52DB42DE5
:10025000BC01CD010C2D1F2D2E2D3D2DA901980186
:100260000E946E0588230CF43394872D962DA52DBE
:10027000B42DBC01CD010C2D1F2D2E2D3D2DA9011E
:1002800098010E94B80618160CF43A9469897A8984
:10029000630D711D89899A890E9495008C2D9F2D6F
:1002A000AE2DBD2DBC01CD010E94DA054B015C01D4
:1002B0000E9406069B01AC018C2D9F2DAE2DBD2DFD
:1002C000BC01CD010E94090520E030E040E05FE381
:1002D0000E94B80618162CF40894811C911CA11CCD
:1002E000B11C8D829E82AF82B886872D962DA52D5A
:1002F000B42DBC01CD010E94DA056B017C010E9486
:1003000006069B01AC01872D962DA52DB42DBC01B1
:10031000CD010E94090520E030E040E05FE30E944B
:10032000B80618162CF40894C11CD11CE11CF11C51
:10033000CD86DE86EF86F88A8981880E80929C04BD
:100340008985C80EC0929B048091000290910102A1
:10035000009709F41CCF80919A04873709F417CFCE
:1003600062960FB6F894DEBF0FBECDBFDF91CF917E
:100370001F910F91FF90EF90DF90CF90BF90AF90C3
:100380009F908F907F906F905F904F903F900895D7
:1003900081B18F6081B982B1807F82B9EAE0F1E0FA
:1003A000808188618083EBE0F1E0808188618083D7
:1003B00008956C98749A08956D98759A08950E949E
:1003C000C8010E94D9010E94DC010895F894EAE670
:1003D000F0E0808182608083EC9A78940895F894AC
:1003E000EAE6F0E0808188608083ED9A7894089551
:1003F0001F920F920FB60F920BB60F9211248F938C
:100400009F93AF93BF93EF93FF93E4E9F0E0808174
:100410009181A0E0B0E08093880490938904A09338
:100420008A04B0938B0411821082FF91EF91BF91E7
:10043000AF919F918F910F900BBE0F900FBE0F90B9
:100440001F9018951F920F920FB60F920BB60F9236
:1004500011248F939F93AF93BF93EF93FF93E4E89F
:10046000F0E080819181A0E0B0E0809390049093CF
:100470009104A0939204B093930411821082FF918F
:10048000EF91BF91AF919F918F910F900BBE0F9005
:100490000FBE0F901F90189592B1907F8F70982B80
:1004A00092B9089586E00E944C02089589E00E9466
:1004B0004C02089585E00E944C0208958AE00E9453
:1004C0004C02089584E00E944C02089582E00E944C
:1004D0004C02089581E00E944C02089588E00E9439
:1004E0004C02089580E00E944C0208950F931F93E0
:1004F000CF93BC0180E090E00E94060628E431EE34
:1005000042E850E40E9472050E94DA05DC01CB014A
:10051000A0E0B0E010928C0410928D0410928E0432
:1005200010928F04109294041092950410929604E5
:1005300010929704F1E0C0E040918C0450918D043A
:1005400060918E0470918F04009194041091950431
:100550002091960430919704EF2F481759076A07A6
:100560007B0708F4EC2FEE2349F44F2F08171907E7
:100570002A073B0708F44C2F4423F1F20E94720231
:10058000CF911F910F910895BC0180E090E00E94EF
:10059000060625EE30ED4AEA50E40E9472050E94FC
:1005A000DA05462F572F682F792F10928C0410925E
:1005B0008D0410928E0410928F0410929404109265
:1005C0009504109296041092970480918C04909157
:1005D0008D04A0918E04B0918F04481759076A07C3
:1005E0007B0768F08091940490919504A091960403
:1005F000B0919704481759076A077B0730F70E94A4
:1006000072020895CF93DF93EC010E945202CE0153
:100610000E94C402DF91CF910895CF93DF93EC0144
:100620000E945602CE010E94C402DF91CF9108952C
:10063000CF93DF93EC010E945A02CE010E94760212
:10064000DF91CF910895CF93DF93EC010E945E027A
:10065000CE010E947602DF91CF910895CF93DF9370
:10066000EC010E946202CE01880F991F0E9476025F
:10067000DF91CF910895CF93DF93EC010E94660242
:10068000CE01880F991F0E947602DF91CF910895C5
:10069000CF93DF93EC010E946A02CE01880F991F6D
:1006A0000E947602DF91CF910895CF93DF93EC0102
:1006B0000E946E02CE01880F991F0E947602DF9180
:1006C000CF910895E1E2F1E010828FEF8093250150
:1006D00091E09093240110922901809328011092B7
:1006E0002B0180932A0110922D0180932C0189EA1D
:1006F000809320018BE080830895E1E8F0E0108290
:100700001092800085E080830895E1E9F0E0108296
:100710001092900085E0808308951092A1001092BD
:10072000A0000895E1ECF0E010821092C00086E095
:100730008093C2008FE58093C4001092C50088E9C1
:10074000808308951F920F920FB60F920BB60F92EF
:1007500011242F933F934F935F936F937F938F93C6
:100760009F93AF93BF93EF93FF932091C600209385
:100770009A0480910402909105028130910521F53F
:100780002130D1F18091060490910704FC01E85FCB
:10079000FB4F20832091A4003091A500FC01EE0FB7
:1007A000FF1FEE0FFF1FEA5FFD4FA90160E070E041
:1007B00040835183628373830196909307048093EF
:1007C000060480E78093C60080919A04813339F44F
:1007D00010920502109204028EE68093C60080916A
:1007E0009A04823349F481E090E09093030280936D
:1007F00002028DE68093C60080919A04873719F42F
:1008000084EB0E949A0080919A04883711F489E061
:1008100082B980919A04813611F485E082B9809181
:100820009A04843611F48AE082B980919A048C3655
:1008300011F484E082B980919A04823711F482E045
:1008400082B980919A04833709F412B8FF91EF912D
:10085000BF91AF919F918F917F916F915F914F91D8
:100860003F912F910F900BBE0F900FBE0F901F90D6
:100870001895F8940E94DF010E94E6010E94EF01A2
:100880000E9462030E949203789408952F923F92EF
:100890004F925F926F927F928F929F92AF92BF9290
:1008A000CF92DF92EF92FF920F931F93CF93DF933C
:1008B0000E9439040E947D030E94850381E090E03C
:1008C000909305028093040285E08093A0008091BC
:1008D00002029091030281309105C9F78FE680935F
:1008E000C6008091060490910704009709F47CC02B
:1008F0000F2EF8E0CF2EF4E0DF2EF02D0F2EF6E0D5
:100900004F2EF2E05F2EF02D662477248824992460
:1009100054010F2EF0EA2F2E3324F02D0F2EF4EA7F
:10092000EF2EFF24F02D02C048015901F101108281
:1009300082E6E6ECF0E08083E6018881873719F4EF
:1009400084EB0E949A008881883711F4E9E0E2B9CB
:100950008881813611F4F5E0F2B98881843611F48A
:100960008AE082B988818C3611F4E4E0E2B98881AA
:10097000823711F4F2E0F2B98881833709F412B8B2
:10098000F20101911191219131912F010815190561
:100990002A053B0539F0B901A801481959096A0926
:1009A0007B0904C04FEF5FEF60E070E0F701118258
:1009B000108285E0F1018083F70180819181A0E0C0
:1009C000B0E084179507A607B707B0F30894611C39
:1009D000711C0894C11CD11C8091060490910704DD
:1009E0006816790608F4A0CF80E090E0DF91CF91FF
:1009F0001F910F91FF90EF90DF90CF90BF90AF903D
:100A00009F908F907F906F905F904F903F902F902E
:100A100008955058BB27AA270ED070C161D130F07D
:100A200066D120F031F49F3F11F41EF456C10EF44C
:100A3000E095E7FB4CC1E92F72D180F3BA1762074A
:100A400073078407950718F071F49EF58AC10EF4B8
:100A5000E0950B2EBA2FA02D0B01B90190010C01CE
:100A6000CA01A0011124FF27591B99F0593F50F4E6
:100A7000503E68F11A16F040A22F232F342F44273E
:100A8000585FF3CF469537952795A795F040539536
:100A9000C9F77EF41F16BA0B620B730B840BBAF006
:100AA0009150A1F0FF0FBB1F661F771F881FC2F771
:100AB0000EC0BA0F621F731F841F48F48795779585
:100AC0006795B795F7959E3F08F0B3CF9395880F3C
:100AD00008F09927EE0F979587950895D4D008F4DC
:100AE00081E008950CD00AC102D140F0F9D030F075
:100AF00021F45F3F19F0EBC0511134C1EEC00FD1AA
:100B000098F39923C9F35523B1F3951B550BBB27D4
:100B1000AA2762177307840738F09F5F5F4F220F81
:100B2000331F441FAA1FA9F333D00E2E3AF0E0E87A
:100B300030D091505040E695001CCAF729D0FE2FC6
:100B400027D0660F771F881FBB1F26173707480758
:100B5000AB07B0E809F0BB0B802DBF01FF2793580E
:100B60005F4F2AF09E3F510568F0B1C0FBC05F3F68
:100B7000ECF3983EDCF3869577956795B795F795F6
:100B80009F5FC9F7880F911D9695879597F90895EE
:100B9000E1E0660F771F881FBB1F6217730784078A
:100BA000BA0720F0621B730B840BBA0BEE1F88F799
:100BB000E0950895BCD088F09F5790F0B92F992701
:100BC000B751A0F0D1F0660F771F881F991F1AF058
:100BD000BA95C9F712C0B13081F0C3D0B1E0089521
:100BE000C0C0672F782F8827B85F39F0B93FCCF3A2
:100BF000869577956795B395D9F73EF4909580954E
:100C0000709561957F4F8F4F9F4F0895E89409C06D
:100C100097FB3EF490958095709561957F4F8F4F2F
:100C20009F4F9923A9F0F92F96E9BB279395F69545
:100C3000879577956795B795F111F8CFFAF4BB0FC3
:100C400011F460FF1BC06F5F7F4F8F4F9F4F16C027
:100C5000882311F096E911C0772321F09EE8872FB1
:100C6000762F05C0662371F096E8862F70E060E06D
:100C70002AF09A95660F771F881FDAF7880F9695E6
:100C8000879597F90895990F0008550FAA0BE0E88A
:100C9000FEEF16161706E807F907C0F0121613063E
:100CA000E407F50798F0621B730B840B950B39F47E
:100CB0000A2661F0232B242B252B21F408950A26E4
:100CC00009F4A140A6958FEF811D811D089597F924
:100CD0009F6780E870E060E008959FEF80EC0895E2
:100CE00000240A941616170618060906089500240B
:100CF0000A9412161306140605060895092E039485
:100D0000000C11F4882352F0BB0F40F4BF2B11F4F8
:100D100060FF04C06F5F7F4F8F4F9F4F089557FD57
:100D20009058440F551F59F05F3F71F04795880F59
:100D300097FB991F61F09F3F79F0879508951216F0
:100D400013061406551FF2CF4695F1DF08C016169C
:100D500017061806991FF1CF86957105610508944D
:100D60000895E894BB2766277727CB0197F9089564
:100D70008ADF08F48FEF0895A1E21A2EAA1BBB1B8D
:100D8000FD010DC0AA1FBB1FEE1FFF1FA217B30757
:100D9000E407F50720F0A21BB30BE40BF50B661F6D
:100DA000771F881F991F1A9469F760957095809531
:100DB00090959B01AC01BD01CF010895F894FFCF40
:00000001FF
